:020000040000FA
:06000000F2EF1DF01200FA
:06080000F2EF1DF01200F2
:06082A000100343C000057
:080830000A01000002000000B3
:0808380095949596949C959807
:10084000959C959E9390939293949298929692945D
:100850009292929093989396929A96909692949060
:100860009492949495909592949E8B8ECA90CA82FD
:10087000CA86CA88CA8ACA8CE90ECB6ECA849D828F
:10088000020E0001A16FA26B960EA36FA46BA56F61
:10089000A66BA76FA86BA96FAA6BAB6FAC6BAD6FA4
:1008A000AE6BAF6FB06BB16FB26BB36FB46BB56F54
:1008B000B66BB76FB86BB96FBA6BBB6FBC6BBD6F04
:1008C000BE6BBF6FC06BC16FC26BC36FC46BC56FB4
:1008D000C66BC76FC86BC96FCA6BCB6FCC6BCD6F64
:1008E000CE6BCF6FD06BD16FD26BD36FD46BD56B18
:1008F000D66BD76BD86BD96BDA6BDB6BDC6BDD6BD4
:10090000DE6BDF6BE06BE16BE26BE36BE46BE56B83
:10091000E66BE76BE86BE96BEA6BEB6BEC6BED6B33
:10092000EE6B1200D9CFE6FFE1CFD9FF200EE12612
:10093000060E0001F95D03E36D50020B02E046EF85
:1009400016F050EC16F09EA246EF16F00001A1073B
:10095000000EA25BA151A21102E045EF16F0CA946D
:10096000A3C0DEFFA4C0DDFF020EA5C0DBFF030EA7
:10097000A6C0DBFF040EA7C0DBFF050EA8C0DBFF8F
:10098000060EDB6A070EDB6A080EDB6A090EDB6AFD
:100990000A0EDB6A0B0EDB6A0C0EDB6A0D0EDB6ADD
:1009A0000C0EDBCF14F00D0EDBCF15F0D8901550E8
:1009B00004E6030E145C000E155801E3ADD00E0ED4
:1009C000DB6A0F0EDB6A0E0EDBCF14F00F0EDBCFEF
:1009D00015F0D890155004E6030E145C000E15585F
:1009E00001E37DD0D9CF16F0DACF17F0020E086EF2
:1009F000096A0E0EDBCF0DF00F0EDBCF0EF09CEC74
:100A00001DF016500624E96E17500720EA6EEECF4F
:100A100014F0EFCF15F0D950060F1A6EDACF1BF095
:100A2000020E086E096A0C0EDBCF0DF00D0EDBCF47
:100A30000EF09CEC1DF01A500624E96E1B500720A6
:100A4000EA6EEECF18F0EFCF19F01450185C155085
:100A500019583FE2D9CF18F0DACF19F0020E086E1C
:100A6000096A0E0EDBCF0DF00F0EDBCF0EF09CEC03
:100A70001DF018500624E96E19500720EA6EEECFDB
:100A800016F0EFCF17F0D950060F146EDACF15F02D
:100A9000020E086E096A0C0EDBCF0DF00D0EDBCFD7
:100AA0000EF09CEC1DF014500624E96E1550072042
:100AB000EA6E16C0EEFF17C0EDFF0E0EDBCF08F09A
:100AC0000F0EDBCF09F0100E08C0DBFF110E09C0BE
:100AD000DBFF0E0EDB2A0F0E01E3DB2A74D7D9CF22
:100AE00014F0DACF15F0020E086E096A100EDBCF93
:100AF0000DF0110EDBCF0EF09CEC1DF0145006240F
:100B0000E96E15500720EA6EEE6AED6A0C0EDB2ADC
:100B10000D0E01E3DB2A44D7060EDBCF14F0070EDF
:100B2000DBCF15F00001A351141802E1A4511518F0
:100B30006AE1080EDBCF14F0090EDBCF15F0A551EA
:100B4000141802E1A65115182FE1A551A35DD56F28
:100B5000A651A459D66FA751A55DD76FA851A65924
:100B6000D86F8C848C868B8C1E0EE66E00EC1EF08B
:100B7000E552A7C0E6FF00EC1EF0E5528B9C000199
:100B8000D751D81105E0D7C0E6FF00EC1EF0E552C2
:100B90008C960001D551D61105E0D5C0E6FF00ECDA
:100BA0001EF0E5528C942ED0A751A35DD56FA851AD
:100BB000A459D66FA551A75DD76FA651A859D86F74
:100BC0008C848C868B8C1E0EE66E00EC1EF0E5523B
:100BD000A5C0E6FF00EC1EF0E5528C960001D7514F
:100BE000D81105E0D7C0E6FF00EC1EF0E5528B9C63
:100BF0000001D551D61105E0D5C0E6FF00EC1EF08E
:100C0000E5528C94DFD0060EDBCF14F0070EDBCF5D
:100C100015F0A551141802E1A65115186AE1080E45
:100C2000DBCF14F0090EDBCF15F0A351141802E14D
:100C3000A45115182FE1A351A55DD56FA451A65954
:100C4000D66FA751A35DD76FA851A459D86F8C84D4
:100C50008C868B8C1E0EE66E00EC1EF0E552A7C053
:100C6000E6FF00EC1EF0E5528B9C0001D751D81135
:100C700005E0D7C0E6FF00EC1EF0E5528C940001C1
:100C8000D551D61105E0D5C0E6FF00EC1EF0E552C7
:100C90008C962ED0A751A55DD56FA851A659D66FB9
:100CA000A351A75DD76FA451A859D86F8C848C86A7
:100CB0008B8C1E0EE66E00EC1EF0E552A3C0E6FF24
:100CC00000EC1EF0E5528C940001D751D81105E0DC
:100CD000D7C0E6FF00EC1EF0E5528B9C0001D55119
:100CE000D61105E0D5C0E6FF00EC1EF0E5528C966B
:100CF00069D0080EDBCF14F0090EDBCF15F0A3513D
:100D0000141802E1A45115182FE1A351A75DD56F66
:100D1000A451A859D66FA551A35DD76FA651A45968
:100D2000D86F8C848C868B8C1E0EE66E00EC1EF0C9
:100D3000E552A5C0E6FF00EC1EF0E5528C960001DE
:100D4000D751D81105E0D7C0E6FF00EC1EF0E55200
:100D50008C940001D551D61105E0D5C0E6FF00EC1A
:100D60001EF0E5528B9C2ED0A551A75DD56FA651E4
:100D7000A859D66FA351A55DD76FA451A659D86FB6
:100D80008C848C868B8C1E0EE66E00EC1EF0E55279
:100D9000A3C0E6FF00EC1EF0E5528C940001D75191
:100DA000D81105E0D7C0E6FF00EC1EF0E5528C96A6
:100DB0000001D551D61105E0D5C0E6FF00EC1EF0CC
:100DC000E5528B9CA9C0DEFFAAC0DDFF020EABC0BE
:100DD000DBFF030EACC0DBFF040EADC0DBFF050E76
:100DE000AEC0DBFF060EDB6A070EDB6A080EDB6AAD
:100DF000090EDB6A0A0EDB6A0B0EDB6A0C0EDB6A7D
:100E00000D0EDB6A0C0EDBCF14F00D0EDBCF15F0F0
:100E1000D890155004E6030E145C000E155801E33B
:100E2000ADD00E0EDB6A0F0EDB6A0E0EDBCF14F0B8
:100E30000F0EDBCF15F0D890155004E6030E145CAE
:100E4000000E155801E37DD0D9CF16F0DACF17F098
:100E5000020E086E096A0E0EDBCF0DF00F0EDBCF0F
:100E60000EF09CEC1DF016500624E96E175007207A
:100E7000EA6EEECF14F0EFCF15F0D950060F1A6ED0
:100E8000DACF1BF0020E086E096A0C0EDBCF0DF0F4
:100E90000D0EDBCF0EF09CEC1DF01A500624E96E0F
:100EA0001B500720EA6EEECF18F0EFCF19F0145068
:100EB000185C155019583FE2D9CF18F0DACF19F065
:100EC000020E086E096A0E0EDBCF0DF00F0EDBCF9F
:100ED0000EF09CEC1DF018500624E96E1950072006
:100EE000EA6EEECF16F0EFCF17F0D950060F146E62
:100EF000DACF15F0020E086E096A0C0EDBCF0DF08A
:100F00000D0EDBCF0EF09CEC1DF014500624E96EA4
:100F100015500720EA6E16C0EEFF17C0EDFF0E0E4B
:100F2000DBCF08F00F0EDBCF09F0120E08C0DBFF9D
:100F3000130E09C0DBFF0E0EDB2A0F0E01E3DB2AC6
:100F400074D7D9CF14F0DACF15F0020E086E096A03
:100F5000120EDBCF0DF0130EDBCF0EF09CEC1DF06C
:100F600014500624E96E15500720EA6EEE6AED6A09
:100F70000C0EDB2A0D0E01E3DB2A44D7060EDBCF75
:100F800014F0070EDBCF15F00001A951141802E18F
:100F9000AA51151866E1080EDBCF14F0090EDBCF5D
:100FA00015F0AB51141802E1AC5115182DE1AB51FD
:100FB000A95DD56FAC51AA59D66FAD51AB5DD76F56
:100FC000AE51AC59D86F8C888C8C1E0EE66E00EC3E
:100FD0001EF0E552ADC0E6FF00EC1EF0E5528C9C21
:100FE0000001D751D81105E0D7C0E6FF00EC1EF094
:100FF000E5528C980001D551D61105E0D5C0E6FF29
:1010000000EC1EF0E5522CD0AD51A95DD56FAE516C
:10101000AA59D66FAB51AD5DD76FAC51AE59D86FF1
:101020008C888C8C1E0EE66E00EC1EF0E552ABC078
:10103000E6FF00EC1EF0E5528C980001D751D81164
:1010400005E0D7C0E6FF00EC1EF0E5528C9C0001E5
:10105000D551D61105E0D5C0E6FF00EC1EF0E552F3
:10106000D7D0060EDBCF14F0070EDBCF15F0AB5157
:10107000141802E1AC51151866E1080EDBCF14F02C
:10108000090EDBCF15F0A951141802E1AA51151869
:101090002DE1A951AB5DD56FAA51AC59D66FAD51B9
:1010A000A95DD76FAE51AA59D86F8C888C8C1E0E53
:1010B000E66E00EC1EF0E552ADC0E6FF00EC1EF05F
:1010C000E5528C9C0001D751D81105E0D7C0E6FF4E
:1010D00000EC1EF0E5520001D551D61105E0D5C057
:1010E000E6FF00EC1EF0E5528C982CD0AD51AB5DC4
:1010F000D56FAE51AC59D66FA951AD5DD76FAA511E
:10110000AE59D86F8C888C8C1E0EE66E00EC1EF0EB
:10111000E552A9C0E6FF00EC1EF0E5520001D751F0
:10112000D81105E0D7C0E6FF00EC1EF0E5528C9C1C
:101130000001D551D61105E0D5C0E6FF00EC1EF048
:10114000E5528C9865D0080EDBCF14F0090EDBCF8A
:1011500015F0A951141802E1AA5115182DE1A95151
:10116000AD5DD56FAA51AE59D66FAB51A95DD76FA2
:10117000AC51AA59D86F8C888C8C1E0EE66E00EC90
:101180001EF0E552ABC0E6FF00EC1EF0E5528C9875
:101190000001D751D81105E0D7C0E6FF00EC1EF0E2
:1011A000E5520001D551D61105E0D5C0E6FF00ECAF
:1011B0001EF0E5528C9C2CD0AB51AD5DD56FAC517F
:1011C000AE59D66FA951AB5DD76FAA51AC59D86F44
:1011D0008C888C8C1E0EE66E00EC1EF0E552A9C0C9
:1011E000E6FF00EC1EF0E5520001D751D81105E0F2
:1011F000D7C0E6FF00EC1EF0E5528C980001D551F7
:10120000D61105E0D5C0E6FF00EC1EF0E5528C9C3F
:10121000AFC0DEFFB0C0DDFF020EB1C0DBFF030ECA
:10122000B2C0DBFF040EB3C0DBFF050EB4C0DBFFB2
:10123000060EDB6A070EDB6A080EDB6A090EDB6A44
:101240000A0EDB6A0B0EDB6A0C0EDB6A0D0EDB6A24
:101250000C0EDBCF14F00D0EDBCF15F0D89015502F
:1012600004E6030E145C000E155801E3ADD00E0E1B
:10127000DB6A0F0EDB6A0E0EDBCF14F00F0EDBCF36
:1012800015F0D890155004E6030E145C000E1558A6
:1012900001E37DD0D9CF16F0DACF17F0020E086E39
:1012A000096A0E0EDBCF0DF00F0EDBCF0EF09CECBB
:1012B0001DF016500624E96E17500720EA6EEECF97
:1012C00014F0EFCF15F0D950060F1A6EDACF1BF0DD
:1012D000020E086E096A0C0EDBCF0DF00D0EDBCF8F
:1012E0000EF09CEC1DF01A500624E96E1B500720EE
:1012F000EA6EEECF18F0EFCF19F01450185C1550CD
:1013000019583FE2D9CF18F0DACF19F0020E086E63
:10131000096A0E0EDBCF0DF00F0EDBCF0EF09CEC4A
:101320001DF018500624E96E19500720EA6EEECF22
:1013300016F0EFCF17F0D950060F146EDACF15F074
:10134000020E086E096A0C0EDBCF0DF00D0EDBCF1E
:101350000EF09CEC1DF014500624E96E1550072089
:10136000EA6E16C0EEFF17C0EDFF0E0EDBCF08F0E1
:101370000F0EDBCF09F0140E08C0DBFF150E09C0FD
:10138000DBFF0E0EDB2A0F0E01E3DB2A74D7D9CF69
:1013900014F0DACF15F0020E086E096A140EDBCFD6
:1013A0000DF0150EDBCF0EF09CEC1DF01450062452
:1013B000E96E15500720EA6EEE6AED6A0C0EDB2A24
:1013C0000D0E01E3DB2A44D7060EDBCF14F0070E27
:1013D000DBCF15F00001AF51141802E1B051151820
:1013E0006AE1080EDBCF14F0090EDBCF15F0B15126
:1013F000141802E1B25115182FE1B151AF5DD56F4C
:10140000B251B059D66FB351B15DD76FB451B25923
:10141000D86F8C8E8A808A821E0EE66E00EC1EF0DB
:10142000E552B3C0E6FF00EC1EF0E5528A920001DF
:10143000D751D81105E0D7C0E6FF00EC1EF0E55209
:101440008A900001D551D61105E0D5C0E6FF00EC29
:101450001EF0E5528C9E2ED0B351AF5DD56FB451C6
:10146000B059D66FB151B35DD76FB251B459D86F7F
:101470008C8E8A808A821E0EE66E00EC1EF0E5528B
:10148000B1C0E6FF00EC1EF0E5528A900001D75192
:10149000D81105E0D7C0E6FF00EC1EF0E5528A92B5
:1014A0000001D551D61105E0D5C0E6FF00EC1EF0D5
:1014B000E5528C9EDFD0060EDBCF14F0070EDBCF9B
:1014C00015F0B151141802E1B25115186AE1080E75
:1014D000DBCF14F0090EDBCF15F0AF51141802E189
:1014E000B05115182FE1AF51B15DD56FB051B25960
:1014F000D66FB351AF5DD76FB451B059D86F8C8EE2
:101500008A808A821E0EE66E00EC1EF0E552B3C0A1
:10151000E6FF00EC1EF0E5528A920001D751D81187
:1015200005E0D7C0E6FF00EC1EF0E5528C9E0001FE
:10153000D551D61105E0D5C0E6FF00EC1EF0E5520E
:101540008A902ED0B351B15DD56FB451B259D66FD8
:10155000AF51B35DD76FB051B459D86F8C8E8A80BC
:101560008A821E0EE66E00EC1EF0E552AFC0E6FF6A
:1015700000EC1EF0E5528C9E0001D751D81105E019
:10158000D7C0E6FF00EC1EF0E5528A920001D5516B
:10159000D61105E0D5C0E6FF00EC1EF0E5528A90BA
:1015A00069D0080EDBCF14F0090EDBCF15F0AF5178
:1015B000141802E1B05115182FE1AF51B35DD56F8A
:1015C000B051B459D66FB151AF5DD76FB251B05968
:1015D000D86F8C8E8A808A821E0EE66E00EC1EF01A
:1015E000E552B1C0E6FF00EC1EF0E5528A90000122
:1015F000D751D81105E0D7C0E6FF00EC1EF0E55248
:101600008C9E0001D551D61105E0D5C0E6FF00EC57
:101610001EF0E5528A922ED0B151B35DD56FB25112
:10162000B459D66FAF51B15DD76FB051B259D86FC1
:101630008C8E8A808A821E0EE66E00EC1EF0E552C9
:10164000AFC0E6FF00EC1EF0E5528C9E0001D751C2
:10165000D81105E0D7C0E6FF00EC1EF0E5528A90F5
:101660000001D551D61105E0D5C0E6FF00EC1EF013
:10167000E5528A92B5C0DEFFB6C0DDFF020EB7C0EC
:10168000DBFF030EB8C0DBFF040EB9C0DBFF050EA5
:10169000BAC0DBFF060EDB6A070EDB6A080EDB6AE8
:1016A000090EDB6A0A0EDB6A0B0EDB6A0C0EDB6AC4
:1016B0000D0EDB6A0C0EDBCF14F00D0EDBCF15F038
:1016C000D890155004E6030E145C000E155801E383
:1016D000ADD00E0EDB6A0F0EDB6A0E0EDBCF14F000
:1016E0000F0EDBCF15F0D890155004E6030E145CF6
:1016F000000E155801E37DD0D9CF16F0DACF17F0E0
:10170000020E086E096A0E0EDBCF0DF00F0EDBCF56
:101710000EF09CEC1DF016500624E96E17500720C1
:10172000EA6EEECF14F0EFCF15F0D950060F1A6E17
:10173000DACF1BF0020E086E096A0C0EDBCF0DF03B
:101740000D0EDBCF0EF09CEC1DF01A500624E96E56
:101750001B500720EA6EEECF18F0EFCF19F01450AF
:10176000185C155019583FE2D9CF18F0DACF19F0AC
:10177000020E086E096A0E0EDBCF0DF00F0EDBCFE6
:101780000EF09CEC1DF018500624E96E195007204D
:10179000EA6EEECF16F0EFCF17F0D950060F146EA9
:1017A000DACF15F0020E086E096A0C0EDBCF0DF0D1
:1017B0000D0EDBCF0EF09CEC1DF014500624E96EEC
:1017C00015500720EA6E16C0EEFF17C0EDFF0E0E93
:1017D000DBCF08F00F0EDBCF09F0160E08C0DBFFE1
:1017E000170E09C0DBFF0E0EDB2A0F0E01E3DB2A0A
:1017F00074D7D9CF14F0DACF15F0020E086E096A4B
:10180000160EDBCF0DF0170EDBCF0EF09CEC1DF0AB
:1018100014500624E96E15500720EA6EEE6AED6A50
:101820000C0EDB2A0D0E01E3DB2A44D7060EDBCFBC
:1018300014F0070EDBCF15F00001B551141802E1CA
:10184000B65115186AE1080EDBCF14F0090EDBCF94
:1018500015F0B751141802E1B85115182FE1B7511E
:10186000B55DD56FB851B659D66FB951B75DD76F61
:10187000BA51B859D86F8A84898889861E0EE66E57
:1018800000EC1EF0E552B9C0E6FF00EC1EF0E55298
:1018900089960001D751D81105E0D7C0E6FF00ECCA
:1018A0001EF0E55289980001D551D61105E0D5C04A
:1018B000E6FF00EC1EF0E5528A942ED0B951B55DDA
:1018C000D56FBA51B659D66FB751B95DD76FB85108
:1018D000BA59D86F8A84898889861E0EE66E00EC14
:1018E0001EF0E552B7C0E6FF00EC1EF0E552899805
:1018F0000001D751D81105E0D7C0E6FF00EC1EF07B
:10190000E55289960001D551D61105E0D5C0E6FF14
:1019100000EC1EF0E5528A94DFD0060EDBCF14F007
:10192000070EDBCF15F0B751141802E1B8511518A6
:101930006AE1080EDBCF14F0090EDBCF15F0B551CC
:10194000141802E1B65115182FE1B551B75DD56FE6
:10195000B651B859D66FB951B55DD76FBA51B659AE
:10196000D86F8A84898889861E0EE66E00EC1EF088
:10197000E552B9C0E6FF00EC1EF0E5528996000181
:10198000D751D81105E0D7C0E6FF00EC1EF0E552B4
:101990008A940001D551D61105E0D5C0E6FF00ECD0
:1019A0001EF0E55289982ED0B951B75DD56FBA5166
:1019B000B859D66FB551B95DD76FB651BA59D86F0E
:1019C0008A84898889861E0EE66E00EC1EF0E55238
:1019D000B5C0E6FF00EC1EF0E5528A940001D75135
:1019E000D81105E0D7C0E6FF00EC1EF0E55289965D
:1019F0000001D551D61105E0D5C0E6FF00EC1EF080
:101A0000E552899869D0080EDBCF14F0090EDBCFC0
:101A100015F0B551141802E1B65115182FE1B55162
:101A2000B95DD56FB651BA59D66FB751B55DD76F9D
:101A3000B851B659D86F8A84898889861E0EE66E99
:101A400000EC1EF0E552B7C0E6FF00EC1EF0E552D8
:101A500089980001D751D81105E0D7C0E6FF00EC06
:101A60001EF0E5528A940001D551D61105E0D5C08B
:101A7000E6FF00EC1EF0E55289962ED0B751B95D15
:101A8000D56FB851BA59D66FB551B75DD76FB6514A
:101A9000B859D86F8A84898889861E0EE66E00EC54
:101AA0001EF0E552B5C0E6FF00EC1EF0E5528A9448
:101AB0000001D751D81105E0D7C0E6FF00EC1EF0B9
:101AC000E55289980001D551D61105E0D5C0E6FF51
:101AD00000EC1EF0E5528996BBC0DEFFBCC0DDFF06
:101AE000020EBDC0DBFF030EBEC0DBFF040EBFC095
:101AF000DBFF050EC0C0DBFF060EDB6A070EDB6AEC
:101B0000080EDB6A090EDB6A0A0EDB6A0B0EDB6A63
:101B10000C0EDB6A0D0EDB6A0C0EDBCF14F00D0E23
:101B2000DBCF15F0D890155004E6030E145C000EC0
:101B3000155801E3ADD00E0EDB6A0F0EDB6A0E0EF8
:101B4000DBCF14F00F0EDBCF15F0D890155004E664
:101B5000030E145C000E155801E37DD0D9CF16F0AA
:101B6000DACF17F0020E086E096A0E0EDBCF0DF009
:101B70000F0EDBCF0EF09CEC1DF016500624E96E24
:101B800017500720EA6EEECF14F0EFCF15F0D950C2
:101B9000060F1A6EDACF1BF0020E086E096A0C0EE1
:101BA000DBCF0DF00D0EDBCF0EF09CEC1DF01A50CC
:101BB0000624E96E1B500720EA6EEECF18F0EFCF37
:101BC00019F01450185C155019583FE2D9CF18F08D
:101BD000DACF19F0020E086E096A0E0EDBCF0DF097
:101BE0000F0EDBCF0EF09CEC1DF018500624E96EB2
:101BF00019500720EA6EEECF16F0EFCF17F0D9504C
:101C0000060F146EDACF15F0020E086E096A0C0E7C
:101C1000DBCF0DF00D0EDBCF0EF09CEC1DF0145061
:101C20000624E96E15500720EA6E16C0EEFF17C0B5
:101C3000EDFF0E0EDBCF08F00F0EDBCF09F0180E14
:101C400008C0DBFF190E09C0DBFF0E0EDB2A0F0EEA
:101C500001E3DB2A74D7D9CF14F0DACF15F0020EE6
:101C6000086E096A180EDBCF0DF0190EDBCF0EF0EF
:101C70009CEC1DF014500624E96E15500720EA6E06
:101C8000EE6AED6A0C0EDB2A0D0E01E3DB2A44D767
:101C9000060EDBCF14F0070EDBCF15F00001BB51B1
:101CA000141802E1BC5115186AE1080EDBCF14F0DC
:101CB000090EDBCF15F0BD51141802E1BE51151805
:101CC0002FE1BD51BB5DD56FBE51BC59D66FBF5121
:101CD000BD5DD76FC051BE59D86F89848982898014
:101CE0001E0EE66E00EC1EF0E552BFC0E6FF00ECF3
:101CF0001EF0E55289900001D751D81105E0D7C0F8
:101D0000E6FF00EC1EF0E55289920001D551D61194
:101D100005E0D5C0E6FF00EC1EF0E55289942ED018
:101D2000BF51BB5DD56FC051BC59D66FBD51BF5DB2
:101D3000D76FBE51C059D86F8984898289801E0EA1
:101D4000E66E00EC1EF0E552BDC0E6FF00EC1EF0B2
:101D5000E55289920001D751D81105E0D7C0E6FFBE
:101D600000EC1EF0E55289900001D551D61105E036
:101D7000D5C0E6FF00EC1EF0E5528994DFD0060ED8
:101D8000DBCF14F0070EDBCF15F0BD51141802E1C4
:101D9000BE5115186AE1080EDBCF14F0090EDBCF37
:101DA00015F0BB51141802E1BC5115182FE1BB51BD
:101DB000BD5DD56FBC51BE59D66FBF51BB5DD76FEE
:101DC000C051BC59D86F8984898289801E0EE66E05
:101DD00000EC1EF0E552BFC0E6FF00EC1EF0E5523D
:101DE00089900001D751D81105E0D7C0E6FF00EC7B
:101DF0001EF0E55289940001D551D61105E0D5C0F9
:101E0000E6FF00EC1EF0E55289922ED0BF51BD5D79
:101E1000D56FC051BE59D66FBB51BF5DD76FBC5196
:101E2000C059D86F8984898289801E0EE66E00ECC5
:101E30001EF0E552BBC0E6FF00EC1EF0E5528994AF
:101E40000001D751D81105E0D7C0E6FF00EC1EF025
:101E5000E55289900001D551D61105E0D5C0E6FFC5
:101E600000EC1EF0E552899269D0080EDBCF14F029
:101E7000090EDBCF15F0BB51141802E1BC51151847
:101E80002FE1BB51BF5DD56FBC51C059D66FBD515D
:101E9000BB5DD76FBE51BC59D86F89848982898058
:101EA0001E0EE66E00EC1EF0E552BDC0E6FF00EC33
:101EB0001EF0E55289920001D751D81105E0D7C034
:101EC000E6FF00EC1EF0E55289940001D551D611D1
:101ED00005E0D5C0E6FF00EC1EF0E55289902ED05B
:101EE000BD51BF5DD56FBE51C059D66FBB51BD5DF1
:101EF000D76FBC51BE59D86F8984898289801E0EE4
:101F0000E66E00EC1EF0E552BBC0E6FF00EC1EF0F2
:101F1000E55289940001D751D81105E0D7C0E6FFFA
:101F200000EC1EF0E55289920001D551D61105E072
:101F3000D5C0E6FF00EC1EF0E5528990C1C0DEFF7F
:101F4000C2C0DDFF020EC3C0DBFF030EC4C0DBFF57
:101F5000040EC5C0DBFF050EC6C0DBFF060EDB6A44
:101F6000070EDB6A080EDB6A090EDB6A0A0EDB6A03
:101F70000B0EDB6A0C0EDB6A0D0EDB6A0C0EDBCF80
:101F800014F00D0EDBCF15F0D890155004E6030EBB
:101F9000145C000E155801E3ADD00E0EDB6A0F0E77
:101FA000DB6A0E0EDBCF14F00F0EDBCF15F0D890EE
:101FB000155004E6030E145C000E155801E37DD0A5
:101FC000D9CF16F0DACF17F0020E086E096A0E0E9E
:101FD000DBCF0DF00F0EDBCF0EF09CEC1DF016509A
:101FE0000624E96E17500720EA6EEECF14F0EFCF0B
:101FF00015F0D950060F1A6EDACF1BF0020E086EDC
:10200000096A0C0EDBCF0DF00D0EDBCF0EF09CEC51
:102010001DF01A500624E96E1B500720EA6EEECF21
:1020200018F0EFCF19F01450185C155019583FE212
:10203000D9CF18F0DACF19F0020E086E096A0E0E29
:10204000DBCF0DF00F0EDBCF0EF09CEC1DF0185027
:102050000624E96E19500720EA6EEECF16F0EFCF96
:1020600017F0D950060F146EDACF15F0020E086E75
:10207000096A0C0EDBCF0DF00D0EDBCF0EF09CECE1
:102080001DF014500624E96E15500720EA6E16C0A4
:10209000EEFF17C0EDFF0E0EDBCF08F00F0EDBCF0B
:1020A00009F01A0E08C0DBFF1B0E09C0DBFF0E0E85
:1020B000DB2A0F0E01E3DB2A74D7D9CF14F0DACF75
:1020C00015F0020E086E096A1A0EDBCF0DF01B0E1A
:1020D000DBCF0EF09CEC1DF014500624E96E155079
:1020E0000720EA6EEE6AED6A0C0EDB2A0D0E01E3A4
:1020F000DB2A44D7060EDBCF14F0070EDBCF15F03A
:102100000001C151141802E1C25115186AE1080E0C
:10211000DBCF14F0090EDBCF15F0C351141802E128
:10212000C45115182FE1C351C15DD56FC451C259B7
:10213000D66FC551C35DD76FC651C459D86F8A8851
:102140008A86898A1E0EE66E00EC1EF0E552C5C036
:10215000E6FF00EC1EF0E552899A0001D751D81134
:1021600005E0D7C0E6FF00EC1EF0E5528A960001BC
:10217000D551D61105E0D5C0E6FF00EC1EF0E552C2
:102180008A982ED0C551C15DD56FC651C259D66F40
:10219000C351C55DD76FC451C659D86F8A888A8626
:1021A000898A1E0EE66E00EC1EF0E552C3C0E6FF03
:1021B00000EC1EF0E5528A960001D751D81105E0D7
:1021C000D7C0E6FF00EC1EF0E552899A0001D55118
:1021D000D61105E0D5C0E6FF00EC1EF0E5528A9866
:1021E000DFD0060EDBCF14F0070EDBCF15F0C351A6
:1021F000141802E1C45115186AE1080EDBCF14F07F
:10220000090EDBCF15F0C151141802E1C2511518A7
:102210002FE1C151C35DD56FC251C459D66FC551AD
:10222000C15DD76FC651C259D86F8A888A86898A9C
:102230001E0EE66E00EC1EF0E552C5C0E6FF00EC97
:102240001EF0E552899A0001D751D81105E0D7C098
:10225000E6FF00EC1EF0E5528A980001D551D61138
:1022600005E0D5C0E6FF00EC1EF0E5528A962ED0C0
:10227000C551C35DD56FC651C459D66FC151C55D37
:10228000D76FC251C659D86F8A888A86898A1E0E2E
:10229000E66E00EC1EF0E552C1C0E6FF00EC1EF059
:1022A000E5528A980001D751D81105E0D7C0E6FF62
:1022B00000EC1EF0E552899A0001D551D61105E0D7
:1022C000D5C0E6FF00EC1EF0E5528A9669D0080EF4
:1022D000DBCF14F0090EDBCF15F0C151141802E169
:1022E000C25115182FE1C151C55DD56FC251C659F4
:1022F000D66FC351C15DD76FC451C259D86F8A8898
:102300008A86898A1E0EE66E00EC1EF0E552C3C076
:10231000E6FF00EC1EF0E5528A960001D751D81175
:1023200005E0D7C0E6FF00EC1EF0E5528A980001F8
:10233000D551D61105E0D5C0E6FF00EC1EF0E55200
:10234000899A2ED0C351C55DD56FC451C659D66F79
:10235000C151C35DD76FC251C459D86F8A888A866C
:10236000898A1E0EE66E00EC1EF0E552C1C0E6FF43
:1023700000EC1EF0E5528A980001D751D81105E013
:10238000D7C0E6FF00EC1EF0E5528A960001D55159
:10239000D61105E0D5C0E6FF00EC1EF0E552899AA3
:1023A000C7C0DEFFC8C0DDFF020EC9C0DBFF030EE1
:1023B000CAC0DBFF040ECBC0DBFF050ECCC0DBFFC9
:1023C000060EDB6A070EDB6A080EDB6A090EDB6AA3
:1023D0000A0EDB6A0B0EDB6A0C0EDB6A0D0EDB6A83
:1023E0000C0EDBCF14F00D0EDBCF15F0D89015508E
:1023F00004E6030E145C000E155801E3ADD00E0E7A
:10240000DB6A0F0EDB6A0E0EDBCF14F00F0EDBCF94
:1024100015F0D890155004E6030E145C000E155804
:1024200001E37DD0D9CF16F0DACF17F0020E086E97
:10243000096A0E0EDBCF0DF00F0EDBCF0EF09CEC19
:102440001DF016500624E96E17500720EA6EEECFF5
:1024500014F0EFCF15F0D950060F1A6EDACF1BF03B
:10246000020E086E096A0C0EDBCF0DF00D0EDBCFED
:102470000EF09CEC1DF01A500624E96E1B5007204C
:10248000EA6EEECF18F0EFCF19F01450185C15502B
:1024900019583FE2D9CF18F0DACF19F0020E086EC2
:1024A000096A0E0EDBCF0DF00F0EDBCF0EF09CECA9
:1024B0001DF018500624E96E19500720EA6EEECF81
:1024C00016F0EFCF17F0D950060F146EDACF15F0D3
:1024D000020E086E096A0C0EDBCF0DF00D0EDBCF7D
:1024E0000EF09CEC1DF014500624E96E15500720E8
:1024F000EA6E16C0EEFF17C0EDFF0E0EDBCF08F040
:102500000F0EDBCF09F01C0E08C0DBFF1D0E09C04B
:10251000DBFF0E0EDB2A0F0E01E3DB2A74D7D9CFC7
:1025200014F0DACF15F0020E086E096A1C0EDBCF2C
:102530000DF01D0EDBCF0EF09CEC1DF014500624A8
:10254000E96E15500720EA6EEE6AED6A0C0EDB2A82
:102550000D0E01E3DB2A44D7060EDBCF14F0070E85
:10256000DBCF15F00001C751141802E1C85115184E
:102570006AE1080EDBCF14F0090EDBCF15F0C9516C
:10258000141802E1CA5115182FE1C951C75DD56F62
:10259000CA51C859D66FCB51C95DD76FCC51CA59F2
:1025A000D86F8D808D828B801E0EE66E00EC1EF043
:1025B000E552CBC0E6FF00EC1EF0E5528B90000127
:1025C000D751D81105E0D7C0E6FF00EC1EF0E55268
:1025D0008D920001D551D61105E0D5C0E6FF00EC83
:1025E0001EF0E5528D902ED0CB51C75DD56FCC51EA
:1025F000C859D66FC951CB5DD76FCA51CC59D86F66
:102600008D808D828B801E0EE66E00EC1EF0E552F2
:10261000C9C0E6FF00EC1EF0E5528D920001D751D3
:10262000D81105E0D7C0E6FF00EC1EF0E5528B9014
:102630000001D551D61105E0D5C0E6FF00EC1EF033
:10264000E5528D90DFD0060EDBCF14F0070EDBCF06
:1026500015F0C951141802E1CA5115186AE1080EA3
:10266000DBCF14F0090EDBCF15F0C751141802E1CF
:10267000C85115182FE1C751C95DD56FC851CA5946
:10268000D66FCB51C75DD76FCC51C859D86F8D80ED
:102690008D828B801E0EE66E00EC1EF0E552CBC0E4
:1026A000E6FF00EC1EF0E5528B900001D751D811E7
:1026B00005E0D7C0E6FF00EC1EF0E5528D9000016A
:1026C000D551D61105E0D5C0E6FF00EC1EF0E5526D
:1026D0008D922ED0CB51C95DD56FCC51CA59D66FD2
:1026E000C751CB5DD76FC851CC59D86F8D808D82C3
:1026F0008B801E0EE66E00EC1EF0E552C7C0E6FFB2
:1027000000EC1EF0E5528D900001D751D81105E084
:10271000D7C0E6FF00EC1EF0E5528B900001D551CA
:10272000D61105E0D5C0E6FF00EC1EF0E5528D9213
:1027300069D0080EDBCF14F0090EDBCF15F0C751BE
:10274000141802E1C85115182FE1C751CB5DD56FA0
:10275000C851CC59D66FC951C75DD76FCA51C85936
:10276000D86F8D808D828B801E0EE66E00EC1EF081
:10277000E552C9C0E6FF00EC1EF0E5528D92000163
:10278000D751D81105E0D7C0E6FF00EC1EF0E552A6
:102790008D900001D551D61105E0D5C0E6FF00ECC3
:1027A0001EF0E5528B902ED0C951CB5DD56FCA512A
:1027B000CC59D66FC751C95DD76FC851CA59D86FA8
:1027C0008D808D828B801E0EE66E00EC1EF0E55231
:1027D000C7C0E6FF00EC1EF0E5528D900001D75116
:1027E000D81105E0D7C0E6FF00EC1EF0E5528D924F
:1027F0000001D551D61105E0D5C0E6FF00EC1EF072
:10280000E5528B90CDC0DEFFCEC0DDFF020ECFC003
:10281000DBFF030ED0C0DBFF040ED1C0DBFF050ED3
:10282000D2C0DBFF060EDB6A070EDB6A080EDB6A2E
:10283000090EDB6A0A0EDB6A0B0EDB6A0C0EDB6A22
:102840000D0EDB6A0C0EDBCF14F00D0EDBCF15F096
:10285000D890155004E6030E145C000E155801E3E1
:10286000ADD00E0EDB6A0F0EDB6A0E0EDBCF14F05E
:102870000F0EDBCF15F0D890155004E6030E145C54
:10288000000E155801E37DD0D9CF16F0DACF17F03E
:10289000020E086E096A0E0EDBCF0DF00F0EDBCFB5
:1028A0000EF09CEC1DF016500624E96E1750072020
:1028B000EA6EEECF14F0EFCF15F0D950060F1A6E76
:1028C000DACF1BF0020E086E096A0C0EDBCF0DF09A
:1028D0000D0EDBCF0EF09CEC1DF01A500624E96EB5
:1028E0001B500720EA6EEECF18F0EFCF19F014500E
:1028F000185C155019583FE2D9CF18F0DACF19F00B
:10290000020E086E096A0E0EDBCF0DF00F0EDBCF44
:102910000EF09CEC1DF018500624E96E19500720AB
:10292000EA6EEECF16F0EFCF17F0D950060F146E07
:10293000DACF15F0020E086E096A0C0EDBCF0DF02F
:102940000D0EDBCF0EF09CEC1DF014500624E96E4A
:1029500015500720EA6E16C0EEFF17C0EDFF0E0EF1
:10296000DBCF08F00F0EDBCF09F01E0E08C0DBFF37
:102970001F0E09C0DBFF0E0EDB2A0F0E01E3DB2A60
:1029800074D7D9CF14F0DACF15F0020E086E096AA9
:102990001E0EDBCF0DF01F0EDBCF0EF09CEC1DF0FA
:1029A00014500624E96E15500720EA6EEE6AED6AAF
:1029B0000C0EDB2A0D0E01E3DB2A44D7060EDBCF1B
:1029C00014F0070EDBCF15F00001CD51141802E111
:1029D000CE5115186AE1080EDBCF14F0090EDBCFDB
:1029E00015F0CF51141802E1D05115182FE1CF5135
:1029F000CD5DD56FD051CE59D66FD151CF5DD76F48
:102A0000D251D059D86F8B828B848C801E0EE66E8B
:102A100000EC1EF0E552D1C0E6FF00EC1EF0E552DE
:102A20008C900001D751D81105E0D7C0E6FF00EC2B
:102A30001EF0E5528B940001D551D61105E0D5C0AA
:102A4000E6FF00EC1EF0E5528B922ED0D151CD5D09
:102A5000D56FD251CE59D66FCF51D15DD76FD051EE
:102A6000D259D86F8B828B848C801E0EE66E00EC60
:102A70001EF0E552CFC0E6FF00EC1EF0E5528B944D
:102A80000001D751D81105E0D7C0E6FF00EC1EF0D9
:102A9000E5528C900001D551D61105E0D5C0E6FF76
:102AA00000EC1EF0E5528B92DFD0060EDBCF14F067
:102AB000070EDBCF15F0CF51141802E1D0511518D5
:102AC0006AE1080EDBCF14F0090EDBCF15F0CD5113
:102AD000141802E1CE5115182FE1CD51CF5DD56FFD
:102AE000CE51D059D66FD151CD5DD76FD251CE597D
:102AF000D86F8B828B848C801E0EE66E00EC1EF0ED
:102B0000E552D1C0E6FF00EC1EF0E5528C900001CA
:102B1000D751D81105E0D7C0E6FF00EC1EF0E55212
:102B20008B920001D551D61105E0D5C0E6FF00EC2F
:102B30001EF0E5528B942ED0D151CF5DD56FD2517E
:102B4000D059D66FCD51D15DD76FCE51D259D86FF4
:102B50008B828B848C801E0EE66E00EC1EF0E5529C
:102B6000CDC0E6FF00EC1EF0E5528B920001D7517C
:102B7000D81105E0D7C0E6FF00EC1EF0E5528C90BE
:102B80000001D551D61105E0D5C0E6FF00EC1EF0DE
:102B9000E5528B9469D0080EDBCF14F0090EDBCF21
:102BA00015F0CD51141802E1CE5115182FE1CD5179
:102BB000D15DD56FCE51D259D66FCF51CD5DD76F84
:102BC000D051CE59D86F8B828B848C801E0EE66ECE
:102BD00000EC1EF0E552CFC0E6FF00EC1EF0E5521F
:102BE0008B940001D751D81105E0D7C0E6FF00EC67
:102BF0001EF0E5528B920001D551D61105E0D5C0EB
:102C0000E6FF00EC1EF0E5528C902ED0CF51D15D46
:102C1000D56FD051D259D66FCD51CF5DD76FCE5130
:102C2000D059D86F8B828B848C801E0EE66E00ECA0
:102C30001EF0E552CDC0E6FF00EC1EF0E5528B928F
:102C40000001D751D81105E0D7C0E6FF00EC1EF017
:102C5000E5528B940001D551D61105E0D5C0E6FFB1
:102C600000EC1EF0E5528C908C821E0EE66E00EC9D
:102C70001EF0E552D3C0E6FF00EC1EF0E5528C9248
:102C8000020E0001A16FA26BCA849E92200EE15C2D
:102C900002E2E16AE552E16EE552E7CFD9FF1200A8
:102CA000D9CFE6FFE1CFD9FFE652200EE66E810EC6
:102CB000E66E000EE66EF9EC1BF0E552E552E552C9
:102CC0000001606F6051000801E39DD081C0A3F056
:102CD000A46BA3BFA46982C0A5F0A66BA5BFA6691B
:102CE00083C0A7F0A86BA7BFA86984C0A9F0AA6B8E
:102CF000A9BFAA6985C0ABF0AC6BABBFAC6986C09D
:102D0000ADF0AE6BADBFAE6987C0AFF0B06BAFBF1B
:102D1000B06988C0B1F0B26BB1BFB26989C0B3F01D
:102D2000B46BB3BFB4698AC0B5F0B66BB5BFB66952
:102D30008BC0B7F0B86BB7BFB8698CC0B9F0BA6BCD
:102D4000B9BFBA698DC0BBF0BC6BBBBFBC698EC0DC
:102D5000BDF0BE6BBDBFBE698FC0BFF0C06BBFBF53
:102D6000C06990C0C1F0C26BC1BFC26991C0C3F05D
:102D7000C46BC3BFC46992C0C5F0C66BC5BFC6698A
:102D800093C0C7F0C86BC7BFC86994C0C9F0CA6B0D
:102D9000C9BFCA6995C0CBF0CC6BCBBFCC6996C01C
:102DA000CDF0CE6BCDBFCE6997C0CFF0D06BCFBF8B
:102DB000D06998C0D1F0D26BD1BFD26999C0D3F09D
:102DC000D46BD3BFD469010EDF6EDF5020080AE355
:102DD000DF04EA6A610FE96E000EEA22EF6ADF287B
:102DE000DF6EF3D704010CAF03D059EC1CF0FAD717
:102DF000200EE66E610EE66E000EE66EBFEC1BF076
:102E0000E552E552E552E552E552E7CFD9FF12000F
:102E1000D9CFE6FFE1CFD9FFE65204011351030AEF
:102E200020E0010A01E022D0125101E01AD0010E87
:102E3000DF6EDF50200814E3DF04EA6A500FE96E0A
:102E4000040EEA22EF50E66EDF04EA6A700FE96EC4
:102E5000040EEA22E552E750EF6EDF28DF6EE9D775
:102E600000D00401125101E001D000D0E552E5523A
:102E7000E7CFD9FF120001010A510B1104E1100E36
:102E80000A6F270E0B6F0A07000E0B5B6DA20BD0AB
:102E90000A510B1107E18C708C50010B02E08C82FF
:102EA00001D08C922FD00001F95103E18C908C92CB
:102EB00029D0F90503E18C808C8224D0020EF95DC3
:102EC00003E18C808C921ED0030EF95D03E18C909F
:102ED0008C8218D0050EF95D07E101010A510B1132
:102EE00002E18C708C920ED0060EF95D0BE10101AF
:102EF0000A510B1107E18C708C50010B02E08C928F
:102F000001D08C821200D9CFE6FFE1CFD9FFE65283
:102F10000101700E026F040E036F0101200E066F97
:102F2000E552E552E7CFD9FF1200D9CFE6FFE1CF56
:102F3000D9FFE6520101900E026F040E036F0101EA
:102F40000A0E066FE552E552E7CFD9FF1200D9CF3E
:102F5000E6FFE1CFD9FF020EE126DE6ADD6ADECFB1
:102F600014F0DDCF15F0FD0EDBCF16F0FE0EDBCF3B
:102F700017F015501718E8AE02D0173404D01650C9
:102F8000145C1750155811E2040EE66E0EEC1EF09C
:102F9000E5520000000000000000000000000000FA
:102FA000DF2A010E01E3DB2ADAD7020EE15C02E23E
:0E2FB000E16AE552E16EE552E7CFD9FF12006B
:022FBE0004010C
:102FC0001051600BE842E842E842E842E84200095A
:102FD00001E055D01151070A51E00B0A4FE0070AF2
:102FE00040E0010A2CE00B0A28E0020A26E0030A6E
:102FF00022E0080A12E0010A0EE00F0A0AE0030AC2
:1030000001E03CD00101010E016F0001040EF96FD7
:1030100036D036D834D090D832D00101010E016FAD
:103020000101FB0E026F000E036F0001FA93010114
:10303000010E066F24D0A8D822D0F4D820D00101E8
:10304000010E016F040114510101026F036BFC0EAC
:103050000227000E03230001FA930101010E066FFF
:103060000ED00101010E016F04011451EA6AFC0F38
:10307000E96E000EEA2212C4EFFF01D000D0120068
:10308000800E0401105D57E11351030A34E0010A78
:1030900010E0030A01E04DD00101010E016F0101B2
:1030A000FA0E026F390E036F120E0101066F076BE5
:1030B00040D00101010E016F04011251F66EF76A52
:1030C000D890F636F7368E0EF6263A0EF72209001D
:1030D000F5CF02F10A00F5CF03F1020E0101F76A04
:1030E0000225F66E0351F7220900F5CF06F10A001A
:1030F000F5CF07F11ED00101010E016F040112513D
:10310000F66EF76AD890F636F736920EF6263A0E35
:10311000F7220900F5CF02F10A00F5CF03F102C151
:10312000F6FF03C1F7FF0800F5500101066F076BBA
:1031300000D00001FA8312000101010E016F0F0E91
:10314000E66E710EE66E0F0EE66EE8EC1CF0E552D0
:10315000E552E552010EE66EFC0EE66E000EE66EDE
:10316000E8EC1CF0E552E552E55212C4FBF0040114
:10317000125104E10001050EF96F05D00001060EA1
:10318000F96FAAEC1BF012000401306B316B0401E3
:1031900010511F0B020A14E0030A0EE0010A01E0BD
:1031A00033D00101010E016F040130810001FAA149
:1031B00002D00401308328D00101010E016F24D018
:1031C0000101010E016F040114510F0B080DF350A2
:1031D000156A000F146E040E15221451800B01E0C5
:1031E000010E040DF35001011424046F000E15208C
:1031F000056F04C1E9FF05C1EAFFEF50040B03E0CE
:103200000401010E306F00D0010101050AE1010146
:10321000300E026F040E036F0001FA930101020EDB
:10322000066F12000401120510E110511F0B000976
:103230000CE10101010E016F030E0401115D03E1B8
:103240000001FA8102D00001FA91040112513AE121
:1032500010511F0B020836E114510F0B000932E028
:103260000101010E016F040114510F0B080DF35001
:10327000156A000F146E040E15221451800B01E024
:10328000010E040DF35001011424046F000E1520EB
:10329000056F030E0401115D07E1840E04C1E9FF0F
:1032A00005C1EAFFEF6E0ED014AF06D004C1E9FFEE
:1032B00005C1EAFFEF6A06D0880E04C1E9FF05C127
:0632C000EAFFEF6E1200B0
:0A32C6006C500BE1040100513C0BB9
:1032D000E842E8420D0802E108D801D03CD804D009
:1032E000040E6C5C01E14DD81200D9CFE6FFE1CFAE
:1032F000D9FFE6520101006B016B066B076BDFEC37
:1033000017F0DF6ADF50146E156A010E145C000EB0
:1033100015581BE20101015101E017D0F76ADF34B3
:10332000FE0BF736F66E980EF6263A0EF7220900D7
:10333000F5CF14F00800F5CF15F004D015C0FAFF52
:103340001450F96EFBDFDF2ADDD7E3D8E552E552F2
:10335000E7CFD9FF1200020E0101005D10E19CD8F9
:10336000020E0101015D02E108EC17F0040100BD4D
:1033700003D0C80E006F02D0880E006F01D00FD9A5
:103380001200040E0001F95D0AE112C46EFF6E50D6
:10339000000803E2050EF96F02D0030EF96F010178
:1033A00000050AE10BD8040104BD03D0C80E046F68
:1033B00002D0880E046F01D0F2D81200D9CFE6FFF8
:1033C000E1CFD9FF020EE1260101200E065D000EBD
:1033D000075905E206C1DEFF07C1DDFF03D0200E5D
:1033E000DE6EDD6A040104930491010EDB500413C8
:1033F000DFCF05F4000EDB500101065F010EDB504C
:10340000075B300E046F040E056F0001FAA31ED097
:10341000D9CFE9FFDACFEAFFEE50ED1016E002C196
:10342000F6FF03C1F7FF0800F55004C1E9FF05C12D
:10343000EAFFEF6E0101042B000E0523022B03238C
:10344000DF06010E01E2DB06E3D71CD0D9CFE9FF8E
:10345000DACFEAFFEE50ED1015E002C1E9FF03C13B
:10346000EAFFEF5004C1E9FF05C1EAFFEF6E010179
:10347000042B000E0523022B0323DF06010E01E2BD
:10348000DB06E4D7020EE15C02E2E16AE552E16E9E
:10349000E552E7CFD9FF1200D9CFE6FFE1CFD9FF40
:1034A000020EE126030E04010015E76E010EE7CFC0
:1034B000DBFF01C4DFFFDE5001010627DD500723DB
:1034C000300E026F040E036FD9CFE9FFDACFEAFFA7
:1034D000EE50ED1014E002C1E9FF03C1EAFFEF5026
:1034E00004C1E9FF05C1EAFFEF6E042B000E0523BE
:1034F000022B0323DF06010E01E2DB06E5D7020EF5
:10350000E15C02E2E16AE552E16EE552E7CFD9FF04
:1035100012006D98010101510CE10401200E016FB0
:10352000100E026F040E036F840E006F0401046F0F
:1035300035D0040110AF22D0010106510401165DFF
:10354000010107510401175904E216C406F117C41A
:1035500007F134DF0101010E006F0401200E016F3D
:10356000100E026F040E036F800E006F0401300E08
:10357000066F040E076FC80E046F10D00101020E13
:10358000006F0401056BC80E046F0401200E016F6B
:10359000300E026F040E036FC80E006F120001019F
:1035A000006B0401200E016F100E026F040E036FFA
:0A35B000880E006F0401046B120086
:0635BA00040110511F0B7B
:1035C000010801E079D0145101E076D0060E115DBA
:1035D0002EE11351230A28E0010A13E0030A01E057
:1035E00024D00101020E016F0001FB0505E101017C
:1035F0001E0E026F3A0E036F090E0101066F076B74
:1036000014D00101020E016F0001FB0505E101016B
:103610005F0E026F3A0E036F0001FB0504E12F0EEF
:103620000101066F076B01D000D00001FA8304018D
:103630001051600BE842E842E842E842E8420108E3
:1036400001E03AD011510B0A31E0080A21E0090AE1
:1036500019E0080A09E00B0A05E0080A01E02CD08D
:103660002CD82AD055D828D00101020E016F0101B3
:10367000FD0E026F000E036F0001FA930101010EAF
:10368000066F1AD00101020E016F13C4FDF014D0B1
:103690000101020E016F0101FE0E026F000E036FA9
:1036A0000001FA930101010E066F06D00101020E1E
:1036B000016F12C4FEF000D01200D9CFE6FFE1CFB7
:1036C000D9FFE65204011351030A11E0020A01E096
:1036D00018D01251010A09E0010A01E007D00101E6
:1036E000020E016F83EC17F001D000D00AD0125106
:1036F00001E006D00101020E016F95EC17F000D039
:1037000000D00001FA93E552E552E7CFD9FF12004D
:1037100004011351030A10E0010A01E01AD012510A
:1037200001E009D00101020E016F0101500E046F8A
:10373000040E056F00D00DD0125101E009D0010137
:10374000020E016F0101900E046F040E056F00D090
:1037500000D012000001FF6B1E0E716E0401200EDE
:10376000096F500E0A6F040E0B6F880E086F04016C
:10377000700E0E6F040E0F6F400E0C6F1200D9CF3B
:10378000E6FFE1CFD9FFE652FC0EDB50200805E250
:10379000200EF36EFC0EF3CFDBFFDF6AFC0EDB5076
:1037A000DF5C19E2DF50E76EFD0EDBCFE9FFFE0EB6
:1037B000DBCFEAFFE750E926000EEA22EF50E66E83
:1037C000DF50EA6A700FE96E040EEA22E552E75014
:1037D000EF6EDF2AE3D7FC0EDBCF0DF4400E0401C1
:1037E0000C170C7D880E0C13E552E552E7CFD9FF7C
:1037F0001200D9CFE6FFE1CFD9FF0001FF6B040132
:1038000008BF31D0FC0EDBCF14F00951D88014541E
:1038100003E2FC0E09C4DBFF0001FF6BFC0EDB5072
:10382000FF5D19E2FF51EA6A500FE96E040EEA22C9
:10383000EF50E66EFF51E76EFD0EDBCFE9FFFE0EA7
:10384000DBCFEAFFE750E926000EEA22E552E75017
:10385000EF6EFF2BE3D70401200E096F400E08170F
:10386000087D880E08130001FF5100D0E552E7CF14
:04387000D9FF12006A
:0C3874006DA60FD802D06DB613D800016D
:10388000F90508E16DBA06D0686A696A69806988D5
:10389000020EF96F12006D6A696A6D860001010EF1
:1038A000F96F12006D6A696A0001F96B120052EF3C
:1038B0001CF00001F95101E13AD06850040B04E01A
:1038C0006950040B01E041D86DB231D06850010B52
:1038D00004E06950010B01E059D86850100B04E076
:1038E0006950100B01E024D86850400B04E0695087
:1038F000400B01E040D86850200B04E06950200BD9
:1039000001E03BD86850020B04E06950020B01E073
:103910003BD8030E0001F95D01E209D06850080BA5
:1039200006E06950080B03E063EC19F0689612009A
:10393000698468986D82A19AF290A08AF286030049
:10394000F2B007D8A09AF29612006D92699468942A
:1039500012000001FAA10ED0F8DF6D840101080EFB
:10396000086F070E096F0807000E095B085109115F
:10397000FAE16D941200689C120070A003D0CFECA5
:103980001AF07090689A1200689212006A6A686A67
:103990009F0E6B6E7B0E696E6E6A0F0EE66E710E79
:1039A000E66E0F0EE66E14D8E552E552E552160E9D
:1039B000706E68A602D06896FCD76D98CFEC1AF0AE
:1039C0000001FA910001FB6B0001030EF96F120078
:1039D000D9CFE6FFE1CFD9FFFD0EDBCFE9FFFE0E29
:1039E000DBCFEAFFFC0EDB5004E0EE6AFC0EDB06E8
:0A39F000F9D7E552E7CFD9FF120026
:0639FA00120100020000B2
:103A00000020250999120100010200010902290084
:103A1000010100A032090400000203000000092196
:103A200001010001222F000705810320000A07057C
:103A3000010320000A040309041C0345006E00640E
:103A4000007500720061006E006300650020005286
:103A5000002F0043000A0350004300540078000682
:103A6000A0FF0901A101090315002600FF750895B3
:103A7000208102090415002600FF75089520910297
:103A8000090515002600FF75089520B102C00C3A03
:0A3A90000C3A353A393A553ABA3586
:063A9A002A0EF66E080E74
:103AA000F76E000EF86E00010900F550F46F090082
:103AB000F550F56F03E1F46701D03DD00900F550F2
:103AC000EF6F0900F550F06F0900F550F16F090034
:103AD0000900F550E96E0900F550EA6E0900090089
:103AE0000900F550F26F0900F550F36F0900090065
:103AF000F6CFF6F0F7CFF7F0F8CFF8F0EFC0F6FF1B
:103B0000F0C0F7FFF1C0F8FF0001F25302E1F353F8
:103B100007E00900F550EE6EF207F8E2F307F9D777
:103B2000F6C0F6FFF7C0F7FFF8C0F8FF0001F40792
:083B3000000EF55BBFD7120087
:083B380009C013F008C012F0EF
:103B400008500D02F4CF07F0F3CF06F009500E0233
:103B5000F4CF09F0F3CF08F00D02F3500726F4502C
:103B60000822E86A092212500E02F3500726F45088
:103B70000822E86A09220EAEC2EF1DF01250085E5C
:103B80001350095A13AE000C0D50085E0E50095A1E
:023B9000000C27
:0E3B920005D810D892EC04F0FCD712000F0EEC
:103BA000C112140E6F6E0001F96B0001FA6B000177
:103BB000FB6B1CEF04F03AEC1CF06FBE02D059EC2A
:043BC0001CF01200E3
:0C3BC400000EF36E00EE00F0040E01D8BD
:103BD0001200EA6002D0EE6AFCD7F350E9601200EE
:043BE000EE6AFCD7B6
:0C3BE40013EE00F023EE00F0F86A019CE4
:103BF0004DEC1DF019EC1EF0C9EC1DF0FBD71200C6
:103C0000FF0EE3501C6E1B0E00D001D0200EE76E9D
:0C3C1000E72EFED71C2EFAD700D01200C1
:043C1C00FF0EE35064
:103C2000E84E1200000000D000D000D0E82EFAD7F5
:023C3000120080
:023C320012007E
:023C340000008E
:00000001FF
